{
  "_format": "hh-sol-artifact-1",
  "contractName": "BlockCred",
  "sourceName": "contracts/Blockcred.sol",
  "abi": [
    {
      "inputs": [],
      "stateMutability": "nonpayable",
      "type": "constructor"
    },
    {
      "anonymous": false,
      "inputs": [
        {
          "indexed": true,
          "internalType": "address",
          "name": "orgAddress",
          "type": "address"
        },
        {
          "indexed": false,
          "internalType": "string",
          "name": "name",
          "type": "string"
        },
        {
          "indexed": true,
          "internalType": "address",
          "name": "admin",
          "type": "address"
        }
      ],
      "name": "OrganizationAdded",
      "type": "event"
    },
    {
      "anonymous": false,
      "inputs": [
        {
          "indexed": true,
          "internalType": "address",
          "name": "orgAddress",
          "type": "address"
        },
        {
          "indexed": true,
          "internalType": "address",
          "name": "user",
          "type": "address"
        }
      ],
      "name": "RequestAccepted",
      "type": "event"
    },
    {
      "anonymous": false,
      "inputs": [
        {
          "indexed": true,
          "internalType": "address",
          "name": "orgAddress",
          "type": "address"
        },
        {
          "indexed": true,
          "internalType": "address",
          "name": "user",
          "type": "address"
        }
      ],
      "name": "RequestRejected",
      "type": "event"
    },
    {
      "anonymous": false,
      "inputs": [
        {
          "indexed": true,
          "internalType": "address",
          "name": "orgAddress",
          "type": "address"
        },
        {
          "indexed": true,
          "internalType": "address",
          "name": "user",
          "type": "address"
        }
      ],
      "name": "UserRequested",
      "type": "event"
    },
    {
      "inputs": [
        {
          "internalType": "address",
          "name": "_orgAddress",
          "type": "address"
        },
        {
          "internalType": "address",
          "name": "_user",
          "type": "address"
        }
      ],
      "name": "acceptRequest",
      "outputs": [],
      "stateMutability": "nonpayable",
      "type": "function"
    },
    {
      "inputs": [
        {
          "internalType": "address",
          "name": "_orgAddress",
          "type": "address"
        },
        {
          "internalType": "string",
          "name": "_name",
          "type": "string"
        }
      ],
      "name": "addOrganization",
      "outputs": [],
      "stateMutability": "nonpayable",
      "type": "function"
    },
    {
      "inputs": [
        {
          "internalType": "address",
          "name": "_orgAddress",
          "type": "address"
        },
        {
          "internalType": "address",
          "name": "_user",
          "type": "address"
        }
      ],
      "name": "getRequestStatus",
      "outputs": [
        {
          "internalType": "string",
          "name": "",
          "type": "string"
        }
      ],
      "stateMutability": "view",
      "type": "function"
    },
    {
      "inputs": [
        {
          "internalType": "address",
          "name": "_orgAddress",
          "type": "address"
        }
      ],
      "name": "getRequests",
      "outputs": [
        {
          "internalType": "address[]",
          "name": "",
          "type": "address[]"
        }
      ],
      "stateMutability": "view",
      "type": "function"
    },
    {
      "inputs": [
        {
          "internalType": "address",
          "name": "_address",
          "type": "address"
        }
      ],
      "name": "isSuperadmin",
      "outputs": [
        {
          "internalType": "bool",
          "name": "",
          "type": "bool"
        }
      ],
      "stateMutability": "view",
      "type": "function"
    },
    {
      "inputs": [
        {
          "internalType": "address",
          "name": "_orgAddress",
          "type": "address"
        }
      ],
      "name": "organizationExists",
      "outputs": [
        {
          "internalType": "bool",
          "name": "",
          "type": "bool"
        }
      ],
      "stateMutability": "view",
      "type": "function"
    },
    {
      "inputs": [
        {
          "internalType": "address",
          "name": "",
          "type": "address"
        }
      ],
      "name": "organizations",
      "outputs": [
        {
          "internalType": "string",
          "name": "name",
          "type": "string"
        },
        {
          "internalType": "address",
          "name": "admin",
          "type": "address"
        },
        {
          "internalType": "bool",
          "name": "exists",
          "type": "bool"
        }
      ],
      "stateMutability": "view",
      "type": "function"
    },
    {
      "inputs": [
        {
          "internalType": "address",
          "name": "_userAddress",
          "type": "address"
        },
        {
          "internalType": "string",
          "name": "_name",
          "type": "string"
        }
      ],
      "name": "registerUser",
      "outputs": [],
      "stateMutability": "nonpayable",
      "type": "function"
    },
    {
      "inputs": [
        {
          "internalType": "address",
          "name": "_orgAddress",
          "type": "address"
        },
        {
          "internalType": "address",
          "name": "_user",
          "type": "address"
        }
      ],
      "name": "rejectRequest",
      "outputs": [],
      "stateMutability": "nonpayable",
      "type": "function"
    },
    {
      "inputs": [
        {
          "internalType": "address",
          "name": "_orgAddress",
          "type": "address"
        }
      ],
      "name": "sendRequest",
      "outputs": [],
      "stateMutability": "nonpayable",
      "type": "function"
    },
    {
      "inputs": [],
      "name": "superadmin",
      "outputs": [
        {
          "internalType": "address",
          "name": "",
          "type": "address"
        }
      ],
      "stateMutability": "view",
      "type": "function"
    },
    {
      "inputs": [
        {
          "internalType": "address",
          "name": "_userAddress",
          "type": "address"
        }
      ],
      "name": "userExists",
      "outputs": [
        {
          "internalType": "bool",
          "name": "",
          "type": "bool"
        }
      ],
      "stateMutability": "view",
      "type": "function"
    },
    {
      "inputs": [
        {
          "internalType": "address",
          "name": "",
          "type": "address"
        }
      ],
      "name": "users",
      "outputs": [
        {
          "internalType": "address",
          "name": "userAddress",
          "type": "address"
        },
        {
          "internalType": "string",
          "name": "name",
          "type": "string"
        },
        {
          "internalType": "bool",
          "name": "exists",
          "type": "bool"
        }
      ],
      "stateMutability": "view",
      "type": "function"
    }
  ],
  "bytecode": "0x608060405234801561001057600080fd5b50600080546001600160a01b031916331790556111cd806100326000396000f3fe608060405234801561001057600080fd5b50600436106100cf5760003560e01c80636b2390d31161008c578063a87430ba11610066578063a87430ba146101e7578063d0ae435614610209578063de5fb08914610229578063e7abd5ea1461024b57600080fd5b80636b2390d3146101a1578063804e44f3146101b457806385e1b15b146101d457600080fd5b80630e666e49146100d45780630ea126f914610119578063318f0fe91461012e5780635a1f74061461014157806363d48aba146101635780636867478a1461018e575b600080fd5b6101046100e2366004610d2c565b6001600160a01b03166000908152600260208190526040909120015460ff1690565b60405190151581526020015b60405180910390f35b61012c610127366004610d64565b610282565b005b61012c61013c366004610e26565b61033e565b61015461014f366004610d2c565b61046b565b60405161011093929190610e9f565b600054610176906001600160a01b031681565b6040516001600160a01b039091168152602001610110565b61012c61019c366004610d64565b610525565b61012c6101af366004610e26565b610698565b6101c76101c2366004610d2c565b6107b0565b6040516101109190610ed2565b61012c6101e2366004610d2c565b610871565b6101fa6101f5366004610d2c565b610a0e565b60405161011093929190610f1f565b61021c610217366004610e26565b610ac6565b6040516101109190610f55565b610104610237366004610d2c565b6000546001600160a01b0391821691161490565b610104610259366004610d2c565b6001600160a01b031660009081526001602081905260409091200154600160a01b900460ff1690565b6001600160a01b0382166000908152600260208190526040909120015460ff16156102f45760405162461bcd60e51b815260206004820152601760248201527f5573657220616c7265616479207265676973746572656400000000000000000060448201526064015b60405180910390fd5b6001600160a01b038216600081815260026020526040902080546001600160a01b03191690911781556001810161032b8382610feb565b50600201805460ff191660011790555050565b6001600160a01b038216600090815260016020819052604090912001548290600160a01b900460ff166103835760405162461bcd60e51b81526004016102eb906110ab565b6001600160a01b03808416600090815260016020908152604080832093861683526003840190915290205460ff166103cd5760405162461bcd60e51b81526004016102eb906110e2565b6001600160a01b03831660009081526003820160209081526040808320805460ff1990811690915560028501835281842080548216600190811790915560048601909352922080549092161790556104258484610be1565b826001600160a01b0316846001600160a01b03167f5e467e966ef1f3971f88e8cdbfaa4e6af166f9454cf57a51a4a7f9abaaccbb5d60405160405180910390a350505050565b60016020526000908152604090208054819061048690610f68565b80601f01602080910402602001604051908101604052809291908181526020018280546104b290610f68565b80156104ff5780601f106104d4576101008083540402835291602001916104ff565b820191906000526020600020905b8154815290600101906020018083116104e257829003601f168201915b505050600190930154919250506001600160a01b0381169060ff600160a01b9091041683565b6000546001600160a01b0316331461058f5760405162461bcd60e51b815260206004820152602760248201527f4f6e6c7920737570657261646d696e2063616e20706572666f726d20746869736044820152661030b1ba34b7b760c91b60648201526084016102eb565b6001600160a01b03821660009081526001602081905260409091200154600160a01b900460ff16156106035760405162461bcd60e51b815260206004820152601b60248201527f4f7267616e697a6174696f6e20616c726561647920657869737473000000000060448201526064016102eb565b6001600160a01b0382166000908152600160205260409020806106268382610feb565b5060018101805460ff60a01b19339081166001600160a81b031990921691909117600160a01b179091556040516001600160a01b038516907f347a3b02f192f68de501cc54854f23b0069f556cc018118935ad3dc66d85fd289061068b908690610f55565b60405180910390a3505050565b6001600160a01b038216600090815260016020819052604090912001548290600160a01b900460ff166106dd5760405162461bcd60e51b81526004016102eb906110ab565b6001600160a01b03808416600090815260016020908152604080832093861683526003840190915290205460ff166107275760405162461bcd60e51b81526004016102eb906110e2565b6001600160a01b03831660009081526003820160209081526040808320805460ff19908116909155600485019092529091208054909116905561076a8484610be1565b826001600160a01b0316846001600160a01b03167fbc07c2fb61df8e6f70aab44a06f5bfa00c1333a244a7ef055273445db3b26ed160405160405180910390a350505050565b6001600160a01b038116600090815260016020819052604090912001546060908290600160a01b900460ff166107f85760405162461bcd60e51b81526004016102eb906110ab565b6001600160a01b0383166000908152600160209081526040918290206005018054835181840281018401909452808452909183018282801561086357602002820191906000526020600020905b81546001600160a01b03168152600190910190602001808311610845575b505050505091505b50919050565b6001600160a01b038116600090815260016020819052604090912001548190600160a01b900460ff166108b65760405162461bcd60e51b81526004016102eb906110ab565b336000908152600260208190526040909120015460ff166109125760405162461bcd60e51b8152602060048201526016602482015275155cd95c881a5cc81b9bdd081c9959da5cdd195c995960521b60448201526064016102eb565b6001600160a01b038216600090815260016020908152604080832033845260020190915290205460ff16156109895760405162461bcd60e51b815260206004820152601b60248201527f5573657220616c72656164792073656e7420612072657175657374000000000060448201526064016102eb565b6001600160a01b038216600081815260016020818152604080842033808652600382018452828620805460ff1916861790556005820180549586018155865292852090930180546001600160a01b03191683179055519193909290917fe2ba8bf358b00f05c8bd853def4df3f91743949a1742efb3514b115ccc8151469190a3505050565b600260205260009081526040902080546001820180546001600160a01b039092169291610a3a90610f68565b80601f0160208091040260200160405190810160405280929190818152602001828054610a6690610f68565b8015610ab35780601f10610a8857610100808354040283529160200191610ab3565b820191906000526020600020905b815481529060010190602001808311610a9657829003601f168201915b5050506002909301549192505060ff1683565b6001600160a01b038216600090815260016020819052604090912001546060908390600160a01b900460ff16610b0e5760405162461bcd60e51b81526004016102eb906110ab565b6001600160a01b03808516600090815260016020908152604080832093871683526004840190915290205460ff1615610b6a57604051806040016040528060088152602001671058d8d95c1d195960c21b815250925050610bda565b6001600160a01b038416600090815260038201602052604090205460ff1615610bb5576040518060400160405280600781526020016650656e64696e6760c81b815250925050610bda565b6040518060400160405280600881526020016714995a9958dd195960c21b8152509250505b5092915050565b6001600160a01b0382166000908152600160205260408120905b6005820154811015610d0a57826001600160a01b0316826005018281548110610c2657610c26611123565b6000918252602090912001546001600160a01b031603610cf857600582018054610c529060019061114f565b81548110610c6257610c62611123565b6000918252602090912001546005830180546001600160a01b039092169183908110610c9057610c90611123565b9060005260206000200160006101000a8154816001600160a01b0302191690836001600160a01b0316021790555081600501805480610cd157610cd1611168565b600082815260209020810160001990810180546001600160a01b0319169055019055610d0a565b80610d028161117e565b915050610bfb565b50505050565b80356001600160a01b0381168114610d2757600080fd5b919050565b600060208284031215610d3e57600080fd5b610d4782610d10565b9392505050565b634e487b7160e01b600052604160045260246000fd5b60008060408385031215610d7757600080fd5b610d8083610d10565b9150602083013567ffffffffffffffff80821115610d9d57600080fd5b818501915085601f830112610db157600080fd5b813581811115610dc357610dc3610d4e565b604051601f8201601f19908116603f01168101908382118183101715610deb57610deb610d4e565b81604052828152886020848701011115610e0457600080fd5b8260208601602083013760006020848301015280955050505050509250929050565b60008060408385031215610e3957600080fd5b610e4283610d10565b9150610e5060208401610d10565b90509250929050565b6000815180845260005b81811015610e7f57602081850181015186830182015201610e63565b506000602082860101526020601f19601f83011685010191505092915050565b606081526000610eb26060830186610e59565b6001600160a01b0394909416602083015250901515604090910152919050565b6020808252825182820181905260009190848201906040850190845b81811015610f135783516001600160a01b031683529284019291840191600101610eee565b50909695505050505050565b6001600160a01b0384168152606060208201819052600090610f4390830185610e59565b90508215156040830152949350505050565b602081526000610d476020830184610e59565b600181811c90821680610f7c57607f821691505b60208210810361086b57634e487b7160e01b600052602260045260246000fd5b601f821115610fe657600081815260208120601f850160051c81016020861015610fc35750805b601f850160051c820191505b81811015610fe257828155600101610fcf565b5050505b505050565b815167ffffffffffffffff81111561100557611005610d4e565b611019816110138454610f68565b84610f9c565b602080601f83116001811461104e57600084156110365750858301515b600019600386901b1c1916600185901b178555610fe2565b600085815260208120601f198616915b8281101561107d5788860151825594840194600190910190840161105e565b508582101561109b5787850151600019600388901b60f8161c191681555b5050505050600190811b01905550565b6020808252601b908201527f4f7267616e697a6174696f6e20646f6573206e6f742065786973740000000000604082015260600190565b60208082526021908201527f4e6f2070656e64696e6720726571756573742066726f6d2074686973207573656040820152603960f91b606082015260800190565b634e487b7160e01b600052603260045260246000fd5b634e487b7160e01b600052601160045260246000fd5b8181038181111561116257611162611139565b92915050565b634e487b7160e01b600052603160045260246000fd5b60006001820161119057611190611139565b506001019056fea264697066735822122098017a1af29e5bed4a2a7d3432ea52a2cbb06fe4589cf00f6c1deae50b2a658b64736f6c63430008110033",
  "linkReferences": {},
  "deployedLinkReferences": {}
}